:1000000071C000008EC000008CC000008AC00000DB
:1000100088C0000086C0000084C0000082C00000CC
:1000200080C000007EC000007CC000007AC00000DC
:1000300078C0000076C0000074C0000072C00000EC
:1000400070C000006FC000006CC000006AC00000FB
:1000500068C0000095C0000064C0000062C00000DD
:1000600060C000005EC000005CC000005AC000001C
:1000700058C0000056C0000054C0000052C000002C
:1000800068C000004EC000004CC000004AC0000024
:1000900048C0000046C0000044C0000042C000004C
:1000A00040C000003EC000003CC000003AC000005C
:1000B00038C0000036C0000034C0000032C000006C
:1000C00030C000002EC000002CC000002AC000007C
:1000D00028C0000026C0000024C0000022C000008C
:1000E00020C0000011241FBECFEFD1E2DEBFCDBF84
:1000F00000E00CBF13E0A0E0B2E0E4E6F3E000E0D3
:100100000BBF02C007900D92A43AB107D9F723E0C4
:10011000A4EAB3E001C01D92AF3AB207E1F751D0B3
:100120001FC16ECF1F920F920FB60F9211248F93A3
:100130009F938091AB039091AC0301969093AC0395
:100140008093AB039F918F910F900FBE0F901F90E4
:1001500018951F920F920FB60F9211248F939F93B1
:100160008091AD039091AE0301969093AE0380937E
:10017000AD039F918F910F900FBE0F901F90189518
:100180001F920F920FB60F9211248F938091A903A3
:100190008F5F8093A9038091A9038D3360F0109243
:1001A000A90385B18093AA038091AA03882314F43C
:1001B0002F9801C02F9A8F910F900FBE0F901F9014
:1001C000189514BC15BC82E080936E009FEF97BD1C
:1001D0001092800091E09093810080936F0020E85E
:1001E0003EE3309389002093880010929000909312
:1001F000910080937100309399002093980081E8DA
:1002000084B97894E0E0F2E001900020E9F73197BA
:10021000E050F240E093A8032F9AB12C0F2EFBE0A0
:10022000EF2EF02DCB2CFF24F3943B2DDF2D2FEF61
:1002300087EA91E6215080409040E1F700C000003D
:10024000B092A703D090A803DD2089F32091A403E6
:10025000A0E0B2E06FEF6D0D70E06F5F7D4F5D91DC
:10026000ECE0F2E0C1E080E090E04081541353C044
:1002700021E0E89EA001E99E500D1124445F5D4FEE
:100280001092AC031092AB031092AE031092AD0328
:10029000FA01E20FF11D8081813D71F42F981092D7
:1002A000AC031092AB038091AB039091AC030B971E
:1002B000D0F32F9AE32F16C08A3D71F42F98109235
:1002C000AC031092AB038091AB039091AC034F97BA
:1002D000D0F32F9AE32F06C08A3A19F42F9AED2F04
:1002E00001C0E32F1092AE031092AD038091AD03D5
:1002F0009091AE034F97D0F32F5FEE2309F4C0CF58
:100300001092AE031092AD038091AD039091AE03B5
:100310004F97D0F323C0503261F41092AE03109285
:10032000AD038091AD039091AE0387349105C8F37E
:1003300015C0C53211F48C2D04C00196CF5F3B96D9
:1003400094CF6A177B0709F08ACF2093A403809388
:10035000A603C093A503D092A70369CF8F2DF1CF39
:04036000F894FFCF3F
:1003640068656C6C6F2074686572650061D1DAAA87
:100374000000000000000062DAD1D1D1AA00000020
:10038400000063DAD1DAD1AA000000000064DAD1F7
:10039400D1AA00000000000065D1AA0000000000FE
:1003A40000000066D1D1DAD1AA000000000067DAAB
:1003B400DAD1AA00000000000068D1D1D1D1AA008E
:1003C4000000000069D1D1AA000000000000006A0A
:1003D400D1DADADAAA00000000006BDAD1DAAA0076
:1003E40000000000006CD1DAD1D1AA0000000000A6
:1003F4006DDADAAA000000000000006EDAD1AA006B
:100404000000000000006FDADADAAA000000000041
:100414000070D1DADAD1AA000000000071DADAD172
:10042400DAAA000000000072D1DAD1AA00000000AC
:10043400000073D1D1D1AA00000000000074DAAA30
:10044400000000000000000075D1D1DAAA0000000D
:1004540000000076D1D1D1DAAA000000000077D1E3
:10046400DADAAA00000000000078DAD1D1DAAA00B2
:100474000000000079DAD1DADAAA00000000007A7C
:10048400DADAD1D1AA000000000031D1DADADADAFE
:10049400AA0000000032D1D1DADADAAA00000000A2
:1004A40033D1D1D1DADAAA0000000034D1D1D1D1CC
:1004B400DAAA0000000035D1D1D1D1D1AA000000C0
:1004C4000036DAD1D1D1D1AA0000000037DADAD16E
:1004D400D1D1AA0000000038DADADAD1D1AA0000BA
:1004E400000039DADADADAD1AA0000000030DADA08
:1004F400DADADAAA000000000000000000000000C0
:0405040000000000F3
:00000001FF
